{
  "contractName": "Blog",
  "abi": [
    {
      "inputs": [
        {
          "internalType": "string",
          "name": "_name",
          "type": "string"
        }
      ],
      "stateMutability": "nonpayable",
      "type": "constructor"
    },
    {
      "anonymous": false,
      "inputs": [
        {
          "indexed": false,
          "internalType": "uint256",
          "name": "id",
          "type": "uint256"
        },
        {
          "indexed": false,
          "internalType": "string",
          "name": "title",
          "type": "string"
        },
        {
          "indexed": false,
          "internalType": "string",
          "name": "hash",
          "type": "string"
        }
      ],
      "name": "PostCreated",
      "type": "event"
    },
    {
      "anonymous": false,
      "inputs": [
        {
          "indexed": false,
          "internalType": "uint256",
          "name": "id",
          "type": "uint256"
        },
        {
          "indexed": false,
          "internalType": "string",
          "name": "title",
          "type": "string"
        },
        {
          "indexed": false,
          "internalType": "string",
          "name": "hash",
          "type": "string"
        },
        {
          "indexed": false,
          "internalType": "bool",
          "name": "published",
          "type": "bool"
        }
      ],
      "name": "PostUpdated",
      "type": "event"
    },
    {
      "inputs": [],
      "name": "name",
      "outputs": [
        {
          "internalType": "string",
          "name": "",
          "type": "string"
        }
      ],
      "stateMutability": "view",
      "type": "function",
      "constant": true
    },
    {
      "inputs": [],
      "name": "owner",
      "outputs": [
        {
          "internalType": "address",
          "name": "",
          "type": "address"
        }
      ],
      "stateMutability": "view",
      "type": "function",
      "constant": true
    },
    {
      "inputs": [
        {
          "internalType": "string",
          "name": "_name",
          "type": "string"
        }
      ],
      "name": "updateName",
      "outputs": [],
      "stateMutability": "nonpayable",
      "type": "function"
    },
    {
      "inputs": [
        {
          "internalType": "address",
          "name": "_newOwner",
          "type": "address"
        }
      ],
      "name": "transferOwnership",
      "outputs": [],
      "stateMutability": "nonpayable",
      "type": "function"
    },
    {
      "inputs": [
        {
          "internalType": "string",
          "name": "_hash",
          "type": "string"
        }
      ],
      "name": "fetchPost",
      "outputs": [
        {
          "components": [
            {
              "internalType": "uint256",
              "name": "id",
              "type": "uint256"
            },
            {
              "internalType": "string",
              "name": "title",
              "type": "string"
            },
            {
              "internalType": "string",
              "name": "content",
              "type": "string"
            },
            {
              "internalType": "bool",
              "name": "published",
              "type": "bool"
            }
          ],
          "internalType": "struct Blog.Post",
          "name": "",
          "type": "tuple"
        }
      ],
      "stateMutability": "view",
      "type": "function",
      "constant": true
    },
    {
      "inputs": [
        {
          "internalType": "string",
          "name": "_title",
          "type": "string"
        },
        {
          "internalType": "string",
          "name": "_hash",
          "type": "string"
        }
      ],
      "name": "createPost",
      "outputs": [],
      "stateMutability": "nonpayable",
      "type": "function"
    },
    {
      "inputs": [
        {
          "internalType": "uint256",
          "name": "_postId",
          "type": "uint256"
        },
        {
          "internalType": "string",
          "name": "_title",
          "type": "string"
        },
        {
          "internalType": "string",
          "name": "_hash",
          "type": "string"
        },
        {
          "internalType": "bool",
          "name": "_published",
          "type": "bool"
        }
      ],
      "name": "updatePost",
      "outputs": [],
      "stateMutability": "nonpayable",
      "type": "function"
    },
    {
      "inputs": [],
      "name": "fetchAllPosts",
      "outputs": [
        {
          "components": [
            {
              "internalType": "uint256",
              "name": "id",
              "type": "uint256"
            },
            {
              "internalType": "string",
              "name": "title",
              "type": "string"
            },
            {
              "internalType": "string",
              "name": "content",
              "type": "string"
            },
            {
              "internalType": "bool",
              "name": "published",
              "type": "bool"
            }
          ],
          "internalType": "struct Blog.Post[]",
          "name": "",
          "type": "tuple[]"
        }
      ],
      "stateMutability": "view",
      "type": "function",
      "constant": true
    }
  ],
  "bytecode": "0x60806040523480156200001157600080fd5b5060405162001913380380620019138339818101604052810190620000379190620002e5565b80600090805190602001906200004f92919062000098565b5033600160006101000a81548173ffffffffffffffffffffffffffffffffffffffff021916908373ffffffffffffffffffffffffffffffffffffffff160217905550506200039b565b828054620000a69062000365565b90600052602060002090601f016020900481019282620000ca576000855562000116565b82601f10620000e557805160ff191683800117855562000116565b8280016001018555821562000116579182015b8281111562000115578251825591602001919060010190620000f8565b5b50905062000125919062000129565b5090565b5b80821115620001445760008160009055506001016200012a565b5090565b6000604051905090565b600080fd5b600080fd5b600080fd5b600080fd5b6000601f19601f8301169050919050565b7f4e487b7100000000000000000000000000000000000000000000000000000000600052604160045260246000fd5b620001b18262000166565b810181811067ffffffffffffffff82111715620001d357620001d262000177565b5b80604052505050565b6000620001e862000148565b9050620001f68282620001a6565b919050565b600067ffffffffffffffff82111562000219576200021862000177565b5b620002248262000166565b9050602081019050919050565b60005b838110156200025157808201518184015260208101905062000234565b8381111562000261576000848401525b50505050565b60006200027e6200027884620001fb565b620001dc565b9050828152602081018484840111156200029d576200029c62000161565b5b620002aa84828562000231565b509392505050565b600082601f830112620002ca57620002c96200015c565b5b8151620002dc84826020860162000267565b91505092915050565b600060208284031215620002fe57620002fd62000152565b5b600082015167ffffffffffffffff8111156200031f576200031e62000157565b5b6200032d84828501620002b2565b91505092915050565b7f4e487b7100000000000000000000000000000000000000000000000000000000600052602260045260246000fd5b600060028204905060018216806200037e57607f821691505b6020821081141562000395576200039462000336565b5b50919050565b61156880620003ab6000396000f3fe608060405234801561001057600080fd5b50600436106100885760003560e01c806384da92a71161005b57806384da92a7146101155780638da5cb5b14610131578063cd349fe91461014f578063f2fde38b1461016b57610088565b8063028d70611461008d57806306fdde03146100ab578063392338f5146100c957806344828659146100e5575b600080fd5b610095610187565b6040516100a29190610d8f565b60405180910390f35b6100b36103c4565b6040516100c09190610dfb565b60405180910390f35b6100e360048036038101906100de9190610f66565b610452565b005b6100ff60048036038101906100fa9190610fde565b6105b3565b60405161010c9190611091565b60405180910390f35b61012f600480360381019061012a9190610fde565b610734565b005b61013961074e565b60405161014691906110f4565b60405180910390f35b61016960048036038101906101649190611167565b610774565b005b61018560048036038101906101809190611232565b610944565b005b606060006101956002610a18565b90506000808267ffffffffffffffff8111156101b4576101b3610e3b565b5b6040519080825280602002602001820160405280156101ed57816020015b6101da610a3c565b8152602001906001900390816101d25790505b50905060005b838110156103ba57600060018261020a919061128e565b90506000600360008381526020019081526020016000209050806040518060800160405290816000820154815260200160018201805461024990611313565b80601f016020809104026020016040519081016040528092919081815260200182805461027590611313565b80156102c25780601f10610297576101008083540402835291602001916102c2565b820191906000526020600020905b8154815290600101906020018083116102a557829003601f168201915b505050505081526020016002820180546102db90611313565b80601f016020809104026020016040519081016040528092919081815260200182805461030790611313565b80156103545780601f1061032957610100808354040283529160200191610354565b820191906000526020600020905b81548152906001019060200180831161033757829003601f168201915b505050505081526020016003820160009054906101000a900460ff16151515158152505084868151811061038b5761038a611345565b5b60200260200101819052506001856103a3919061128e565b9450505080806103b290611374565b9150506101f3565b5080935050505090565b600080546103d190611313565b80601f01602080910402602001604051908101604052809291908181526020018280546103fd90611313565b801561044a5780601f1061041f5761010080835404028352916020019161044a565b820191906000526020600020905b81548152906001019060200180831161042d57829003601f168201915b505050505081565b61045c6002610a26565b60006104686002610a18565b90506000600360008381526020019081526020016000209050818160000181905550838160010190805190602001906104a2929190610a66565b50828160020190805190602001906104bb929190610a66565b5060018160030160006101000a81548160ff021916908315150217905550806004846040516104ea91906113f9565b908152602001604051809103902060008201548160000155600182018160010190805461051690611313565b610521929190610aec565b50600282018160020190805461053690611313565b610541929190610aec565b506003820160009054906101000a900460ff168160030160006101000a81548160ff0219169083151502179055509050507fe6851f0b99a9d86e5d68a97f65218980851216ce297f789c6b6b7e82ca1d90c88285856040516105a59392919061141f565b60405180910390a150505050565b6105bb610a3c565b6004826040516105cb91906113f9565b9081526020016040518091039020604051806080016040529081600082015481526020016001820180546105fe90611313565b80601f016020809104026020016040519081016040528092919081815260200182805461062a90611313565b80156106775780601f1061064c57610100808354040283529160200191610677565b820191906000526020600020905b81548152906001019060200180831161065a57829003601f168201915b5050505050815260200160028201805461069090611313565b80601f01602080910402602001604051908101604052809291908181526020018280546106bc90611313565b80156107095780601f106106de57610100808354040283529160200191610709565b820191906000526020600020905b8154815290600101906020018083116106ec57829003601f168201915b505050505081526020016003820160009054906101000a900460ff1615151515815250509050919050565b806000908051906020019061074a929190610a66565b5050565b600160009054906101000a900473ffffffffffffffffffffffffffffffffffffffff1681565b6000600360008681526020019081526020016000209050838160010190805190602001906107a3929190610a66565b50828160020190805190602001906107bc929190610a66565b50818160030160006101000a81548160ff021916908315150217905550806003600087815260200190815260200160002060008201548160000155600182018160010190805461080b90611313565b610816929190610aec565b50600282018160020190805461082b90611313565b610836929190610aec565b506003820160009054906101000a900460ff168160030160006101000a81548160ff0219169083151502179055509050508060048460405161087891906113f9565b90815260200160405180910390206000820154816000015560018201816001019080546108a490611313565b6108af929190610aec565b5060028201816002019080546108c490611313565b6108cf929190610aec565b506003820160009054906101000a900460ff168160030160006101000a81548160ff0219169083151502179055509050507f9f8eb93fc073102bbd3072664634ab200707a4f11d94aace9cc8d0e4d019eff5858585856040516109359493929190611473565b60405180910390a15050505050565b600160009054906101000a900473ffffffffffffffffffffffffffffffffffffffff1673ffffffffffffffffffffffffffffffffffffffff163373ffffffffffffffffffffffffffffffffffffffff16146109d4576040517f08c379a00000000000000000000000000000000000000000000000000000000081526004016109cb90611512565b60405180910390fd5b80600160006101000a81548173ffffffffffffffffffffffffffffffffffffffff021916908373ffffffffffffffffffffffffffffffffffffffff16021790555050565b600081600001549050919050565b6001816000016000828254019250508190555050565b60405180608001604052806000815260200160608152602001606081526020016000151581525090565b828054610a7290611313565b90600052602060002090601f016020900481019282610a945760008555610adb565b82601f10610aad57805160ff1916838001178555610adb565b82800160010185558215610adb579182015b82811115610ada578251825591602001919060010190610abf565b5b509050610ae89190610b79565b5090565b828054610af890611313565b90600052602060002090601f016020900481019282610b1a5760008555610b68565b82601f10610b2b5780548555610b68565b82800160010185558215610b6857600052602060002091601f016020900482015b82811115610b67578254825591600101919060010190610b4c565b5b509050610b759190610b79565b5090565b5b80821115610b92576000816000905550600101610b7a565b5090565b600081519050919050565b600082825260208201905092915050565b6000819050602082019050919050565b6000819050919050565b610bd581610bc2565b82525050565b600081519050919050565b600082825260208201905092915050565b60005b83811015610c15578082015181840152602081019050610bfa565b83811115610c24576000848401525b50505050565b6000601f19601f8301169050919050565b6000610c4682610bdb565b610c508185610be6565b9350610c60818560208601610bf7565b610c6981610c2a565b840191505092915050565b60008115159050919050565b610c8981610c74565b82525050565b6000608083016000830151610ca76000860182610bcc565b5060208301518482036020860152610cbf8282610c3b565b91505060408301518482036040860152610cd98282610c3b565b9150506060830151610cee6060860182610c80565b508091505092915050565b6000610d058383610c8f565b905092915050565b6000602082019050919050565b6000610d2582610b96565b610d2f8185610ba1565b935083602082028501610d4185610bb2565b8060005b85811015610d7d5784840389528151610d5e8582610cf9565b9450610d6983610d0d565b925060208a01995050600181019050610d45565b50829750879550505050505092915050565b60006020820190508181036000830152610da98184610d1a565b905092915050565b600082825260208201905092915050565b6000610dcd82610bdb565b610dd78185610db1565b9350610de7818560208601610bf7565b610df081610c2a565b840191505092915050565b60006020820190508181036000830152610e158184610dc2565b905092915050565b6000604051905090565b600080fd5b600080fd5b600080fd5b600080fd5b7f4e487b7100000000000000000000000000000000000000000000000000000000600052604160045260246000fd5b610e7382610c2a565b810181811067ffffffffffffffff82111715610e9257610e91610e3b565b5b80604052505050565b6000610ea5610e1d565b9050610eb18282610e6a565b919050565b600067ffffffffffffffff821115610ed157610ed0610e3b565b5b610eda82610c2a565b9050602081019050919050565b82818337600083830152505050565b6000610f09610f0484610eb6565b610e9b565b905082815260208101848484011115610f2557610f24610e36565b5b610f30848285610ee7565b509392505050565b600082601f830112610f4d57610f4c610e31565b5b8135610f5d848260208601610ef6565b91505092915050565b60008060408385031215610f7d57610f7c610e27565b5b600083013567ffffffffffffffff811115610f9b57610f9a610e2c565b5b610fa785828601610f38565b925050602083013567ffffffffffffffff811115610fc857610fc7610e2c565b5b610fd485828601610f38565b9150509250929050565b600060208284031215610ff457610ff3610e27565b5b600082013567ffffffffffffffff81111561101257611011610e2c565b5b61101e84828501610f38565b91505092915050565b600060808301600083015161103f6000860182610bcc565b50602083015184820360208601526110578282610c3b565b915050604083015184820360408601526110718282610c3b565b91505060608301516110866060860182610c80565b508091505092915050565b600060208201905081810360008301526110ab8184611027565b905092915050565b600073ffffffffffffffffffffffffffffffffffffffff82169050919050565b60006110de826110b3565b9050919050565b6110ee816110d3565b82525050565b600060208201905061110960008301846110e5565b92915050565b61111881610bc2565b811461112357600080fd5b50565b6000813590506111358161110f565b92915050565b61114481610c74565b811461114f57600080fd5b50565b6000813590506111618161113b565b92915050565b6000806000806080858703121561118157611180610e27565b5b600061118f87828801611126565b945050602085013567ffffffffffffffff8111156111b0576111af610e2c565b5b6111bc87828801610f38565b935050604085013567ffffffffffffffff8111156111dd576111dc610e2c565b5b6111e987828801610f38565b92505060606111fa87828801611152565b91505092959194509250565b61120f816110d3565b811461121a57600080fd5b50565b60008135905061122c81611206565b92915050565b60006020828403121561124857611247610e27565b5b60006112568482850161121d565b91505092915050565b7f4e487b7100000000000000000000000000000000000000000000000000000000600052601160045260246000fd5b600061129982610bc2565b91506112a483610bc2565b9250827fffffffffffffffffffffffffffffffffffffffffffffffffffffffffffffffff038211156112d9576112d861125f565b5b828201905092915050565b7f4e487b7100000000000000000000000000000000000000000000000000000000600052602260045260246000fd5b6000600282049050600182168061132b57607f821691505b6020821081141561133f5761133e6112e4565b5b50919050565b7f4e487b7100000000000000000000000000000000000000000000000000000000600052603260045260246000fd5b600061137f82610bc2565b91507fffffffffffffffffffffffffffffffffffffffffffffffffffffffffffffffff8214156113b2576113b161125f565b5b600182019050919050565b600081905092915050565b60006113d382610bdb565b6113dd81856113bd565b93506113ed818560208601610bf7565b80840191505092915050565b600061140582846113c8565b915081905092915050565b61141981610bc2565b82525050565b60006060820190506114346000830186611410565b81810360208301526114468185610dc2565b9050818103604083015261145a8184610dc2565b9050949350505050565b61146d81610c74565b82525050565b60006080820190506114886000830187611410565b818103602083015261149a8186610dc2565b905081810360408301526114ae8185610dc2565b90506114bd6060830184611464565b95945050505050565b7f6f6e6c79206f776e65722063616e2063616c6c20746869732066756e63696f6e600082015250565b60006114fc602083610db1565b9150611507826114c6565b602082019050919050565b6000602082019050818103600083015261152b816114ef565b905091905056fea2646970667358221220fb892aeafa69c872a1c5b9b96372e656ac7fbb52b292f0ad329b3b9fb0ba7cc464736f6c634300080b0033",
  "immutableReferences": {},
  "source": "//SPDX-License-Identifier: Unlicense\npragma solidity ^0.8.0;\n\nimport \"@openzeppelin/contracts/utils/Counters.sol\";\n\ncontract Blog {\n    string public name;\n    address public owner;\n\n    using Counters for Counters.Counter;\n    Counters.Counter private _postIds;\n\n    struct Post {\n        uint id;\n        string title;\n        string content;\n        bool published;\n    }\n    \n    mapping (uint => Post) private idToPost;\n    mapping (string => Post) private hashToPost;\n\n    event PostCreated(uint id, string title, string hash);\n    event PostUpdated(uint id, string title, string hash, bool published);\n\n    modifier onlyOwner() {\n        require(msg.sender == owner, \"only owner can call this funcion\");\n        _;\n    }\n\n    constructor(string memory _name) {\n        name = _name;\n        owner = msg.sender;\n    }\n\n    function updateName(string memory _name) public {\n        name = _name;\n    } \n\n    function transferOwnership(address _newOwner) public onlyOwner {\n        owner = _newOwner;\n    }\n\n    function fetchPost(string memory _hash) public view returns (Post memory) {\n        return hashToPost[_hash];\n    }\n\n    function createPost(string memory _title, string memory _hash) public {\n        // increment the counter value for postId.\n        _postIds.increment();\n        // get the current value of counter\n        uint postId = _postIds.current();\n        // add id to the new post\n        Post storage post = idToPost[postId];\n        post.id = postId;\n        post.title = _title;\n        post.content = _hash;\n        post.published = true;\n        // adding the hash for the post\n        hashToPost[_hash] = post;\n        emit PostCreated(postId, _title, _hash);\n    }\n\n    function updatePost(uint _postId, string memory _title, string memory _hash, bool _published) public {\n        // get the post to be updated\n        Post storage post = idToPost[_postId];\n        post.title = _title;\n        post.content = _hash;\n        post.published = _published;\n        // adding the post to the post id\n        idToPost[_postId] = post;\n        // adding the post to the hash mapping\n        hashToPost[_hash] = post;\n        emit PostUpdated(_postId, _title, _hash, _published);\n    }\n\n    /**  \n        @dev return all post \n    */ \n    function fetchAllPosts() public view returns (Post[] memory) {\n        /// @dev fetching current counter index\n        uint itemCount = _postIds.current();\n        /// @dev setting new variable to (0) to add post on new array with new index\n        uint currentIndex = 0;\n\n        /// @dev empty array with Post interface\n        Post[] memory posts = new Post[](itemCount);\n        \n        /// @dev loop with the length of all post\n        for(uint i = 0; i < itemCount; i++) {\n            /// @dev increment iD by one (0 + 1 = 1)\n            uint currentID = i + 1;\n            /// @dev fetching post from blockchain with for loop index and saving it on variable\n            Post storage currentItem = idToPost[currentID];\n            /// @dev passing the fetched post to the newly created array\n            posts[currentIndex] = currentItem;\n            /// @dev incrementing the variable by one\n            currentIndex += 1; \n        }\n        return posts;\n    }\n}",
  "sourcePath": "/Users/vtech/Desktop/React-Web3.0-Boilerplate/contracts/contracts/Blog.sol",
  "compiler": {
    "name": "solc",
    "version": "0.8.11+commit.d7f03943.Emscripten.clang"
  },
  "schemaVersion": "3.4.5",
  "updatedAt": "2022-03-07T06:26:22.385Z",
  "networkType": "ethereum",
  "devdoc": {
    "kind": "dev",
    "methods": {
      "fetchAllPosts()": {
        "details": "return all post "
      }
    },
    "version": 1
  },
  "userdoc": {
    "kind": "user",
    "methods": {},
    "version": 1
  }
}